:020000040800F2
:1000000000500020ED1400083515000835150008D3
:1000100035150008351500083515000800000000EA
:10002000000000000000000000000000351500087E
:10003000351500080000000035150008D914000827
:100040003515000835150008351500083515000868
:100050003515000835150008351500083515000858
:100060003515000835150008351500083515000848
:100070003515000835150008351500083515000838
:100080003515000835150008351500083515000828
:100090003515000835150008351500083515000818
:1000A0003515000835150008351500083515000808
:1000B00035150008351500083515000835150008F8
:1000C00035150008351500083515000835150008E8
:1000D00035150008351500083515000835150008D8
:1000E000351500083515000835150008000000001A
:1000F0000000000000000000000000000000000000
:0C01000000000000000000005FF808F1A3
:10010C0010B5054C237833B9044B13B10448AFF345
:10011C0000800123237010BD5C040020000000004F
:10012C000C01000808B5034B1BB103490348AFF39E
:10013C00008008BD00000000600400200C010008D5
:10014C0082B03C4B1A6842F001021A6059683A4A74
:10015C000A405A601A6822F0847222F480321A60C3
:10016C001A6822F480221A605A6822F4FE025A603D
:10017C004FF41F029A600022009201921A6842F416
:10018C0080321A601A46136803F400330193009B03
:10019C0001330093019B1BB9009BB3F5A06FF2D107
:1001AC00244B1B6813F4003F14BF0123002301935D
:1001BC00019B012B05D0214B4FF000629A6002B0DD
:1001CC0070471F4B1A6842F010021A601A6822F02E
:1001DC0003021A601A6842F002021A60A3F58053F7
:1001EC005A685A605A685A605A6842F480625A6077
:1001FC005A6822F47C125A605A6842F4E8125A6027
:10020C001A6842F080721A601A46136813F0007F65
:10021C00FBD0084B5A6822F003025A605A6842F02D
:10022C0002025A601A46536803F00C03082BFAD1E9
:10023C00C1E700BF001002400000FFF800ED00E035
:10024C00002002401D4B5B6803F00C03042B15D0FF
:10025C00082B17D01BB11A4B1A4A1A6002E0184B24
:10026C00184A1A60154B5B68C3F30313144A134402
:10027C001B79D9B21368CB4013607047104B114AED
:10028C001A60EFE70D4A53685268C3F38343023395
:10029C0012F4803F05D10C4A02FB03F3084A1360A9
:1002AC00E0E7064A526812F4003F14BF064A054ABA
:1002BC0002FB03F3024A1360D4E700BF00100240B4
:1002CC000000002000127A0000093D00F0B583B058
:1002DC000121102000F05CFF01A800F04BF94FF455
:1002EC000053ADF8043010238DF8073003238DF83C
:1002FC00063001A90F4800F097F801F0CDF80E4E2A
:10030C000E4D0C4F0DE033606A68003218BF0122AD
:10031C004FF40051384600F0A1FA6B68C3F10103A9
:10032C006B603468286806490B681A1B8242FBD341
:10033C00E9E700BF00100140780400201400002001
:10034C00800400207047FEE708B5304B984254D02B
:10035C0003F58063984218D003F5806398421DD052
:10036C0003F58063984222D003F58063984227D02E
:10037C0003F5806398422CD003F58063984231D00A
:10038C006F212348FFF7DFFF3FE00121082000F039
:10039C004BFF0021082000F047FF36E00121102020
:1003AC0000F042FF0021102000F03EFF2DE0012163
:1003BC00202000F039FF0021202000F035FF24E040
:1003CC000121402000F030FF0021402000F02CFFE4
:1003DC001BE00121802000F027FF0021802000F08D
:1003EC0023FF12E001214FF4807000F01DFF00216B
:1003FC004FF4807000F018FF07E00121042000F09A
:10040C0013FF0021042000F00FFF08BD000801407D
:10041C006016000808B50121084600F005FF002110
:10042C00012000F001FF08BDF8B505460C464F4B06
:10043C0098421BD003F58063984217D003F5806374
:10044C00984213D003F5806398420FD003F5806374
:10045C0098420BD003F58063984207D003F5806374
:10046C00984203D0B2214248FFF76DFFE37813F0B6
:10047C00FB0274D0282B72D0482B70D0102A01D0DC
:10048C00182A04D1228803F00F0692B905E0B32193
:10049C003748FFF758FF23881BB9B4213448FFF7BE
:1004AC0052FFE37803F00F0613F0100F08BF30462D
:1004BC0007D0A378013BDBB2022B0AD8A37846EA1B
:1004CC000300237823B32E68002301274FF00F0E6F
:1004DC000AE0BB212648FFF736FFEFE7482908BFA3
:1004EC002A610133082B12D007FA03F2218832EA71
:1004FC000101F6D199000EFA01FC26EA0C0600FA6D
:10050C0001F10E43E1782829E8D16A61E9E72E6010
:10051C002388FF2B22D96F6808234FF0010C4FF072
:10052C000F0E02E00133102B17D00CFA03F12688C2
:10053C0031EA0602F6D19A00203A0EFA02F627EAC0
:10054C00060700FA02F21743E278282A08BF69610D
:10055C00E278482A08BF2961E4E76F60F8BD228879
:10056C00002A9AD003F00F00ABE700BF000801404F
:10057C00601600084FF6FF73038002238370042378
:10058C00C370704738B504460D46294B98421CD0B1
:10059C0003F58063984218D003F58063984214D019
:1005AC0003F58063984210D003F5806398420CD019
:1005BC0003F58063984208D003F58063984204D019
:1005CC004FF48F711B48FFF7BEFE6B1E9BB21F2BA7
:1005DC000BD8194A22FA03F313F0010F21D0A368A8
:1005EC001D4214BF0120002038BD402DF7D0802DB6
:1005FC00F5D0B5F5807FF2D0B5F5007FEFD0B5F52D
:10060C00806FECD0B5F5006FE9D0B5F5805FE6D022
:10061C00B5F5005FE3D0B5F5804FE0D0B5F5004FF0
:10062C00DDD040F21F110348FFF78DFED7E700BF66
:10063C0000080140601600088B80008010B504464D
:10064C00114B98421CD003F58063984218D003F5E7
:10065C008063984214D003F58063984210D003F560
:10066C00806398420CD003F58063984208D003F560
:10067C008063984204D04FF49A710448FFF763FEEC
:10068C00A06880B210BD00BF0008014060160008D1
:10069C0038B504460D46294B98421CD003F58063AF
:1006AC00984218D003F58063984214D003F5806308
:1006BC00984210D003F5806398420CD003F5806308
:1006CC00984208D003F58063984204D04FF4A2718D
:1006DC001B48FFF738FE6B1E9BB21F2B0BD8194A19
:1006EC0022FA03F313F0010F21D0E3681D4214BF6B
:1006FC000120002038BD402DF7D0802DF5D0B5F568
:10070C00807FF2D0B5F5007FEFD0B5F5806FECD0DF
:10071C00B5F5006FE9D0B5F5805FE6D0B5F5005FB3
:10072C00E3D0B5F5804FE0D0B5F5004FDDD040F209
:10073C0045110348FFF707FED7E700BF000801404B
:10074C00601600088B80008010B50446114B98424F
:10075C001CD003F58063984218D003F5806398424F
:10076C0014D003F58063984210D003F5806398424F
:10077C000CD003F58063984208D003F5806398424F
:10078C0004D04FF4AD710448FFF7DDFDE06880B292
:10079C0010BD00BF000801406016000838B50446C3
:1007AC000D46144B98421CD003F58063984218D028
:1007BC0003F58063984214D003F58063984210D0FF
:1007CC0003F5806398420CD003F58063984208D0FF
:1007DC0003F58063984204D040F269110648FFF794
:1007EC00B2FD0DB1256138BD4FF4B5710248FFF76C
:1007FC00AAFDF7E7000801406016000838B504466A
:10080C000D46144B98421CD003F58063984218D0C7
:10081C0003F58063984214D003F58063984210D09E
:10082C0003F5806398420CD003F58063984208D09E
:10083C0003F58063984204D040F279110648FFF723
:10084C0082FD0DB1656138BD4FF4BD710248FFF7F3
:10085C007AFDF7E7000801406016000870B5044601
:10086C000D4616462B4B98421CD003F580639842DC
:10087C0018D003F58063984214D003F58063984236
:10088C0010D003F5806398420CD003F58063984236
:10089C0008D003F58063984204D040F28D111E48B5
:1008AC00FFF751FD6B1E9BB21F2B11D81B4A22FA6E
:1008BC0003F313F0010F27D0012E02D836B965616E
:1008CC0005E040F28F111448FFF73DFD256170BD26
:1008DC00402DF1D0802DEFD0B5F5807FECD0B5F563
:1008EC00007FE9D0B5F5806FE6D0B5F5006FE3D0A9
:1008FC00B5F5805FE0D0B5F5005FDDD0B5F5804F84
:10090C00DAD0B5F5004FD7D04FF4C7710248FFF7D6
:10091C001AFDD1E700080140601600088B800080AA
:10092C0038B504460D46114B98421CD003F5806334
:10093C00984218D003F58063984214D003F5806375
:10094C00984210D003F5806398420CD003F5806375
:10095C00984208D003F58063984204D04FF4D271CA
:10096C000348FFF7F0FCE56038BD00BF000801400C
:10097C006016000838B504460D46174B98421CD03B
:10098C0003F58063984218D003F58063984214D025
:10099C0003F58063984210D003F5806398420CD025
:1009AC0003F58063984208D003F58063984204D025
:1009BC0040F2B5110948FFF7C6FC3DB145F4803350
:1009CC00A361A561A361A369A36938BD4FF4DB7171
:1009DC000248FFF7B8FCF1E7000801406016000878
:1009EC0038B504460D4604280CD80F2D10D80B4BE7
:1009FC00186820F07F000004000C284340EA041023
:100A0C00186038BD4FF4E9710548FFF79CFCECE722
:100A1C0040F2D3110248FFF796FCE8E700000140D2
:100A2C006016000810B50446012802D8044B1C605F
:100A3C0010BD4FF4F3710348FFF785FCF6E700BFD8
:100A4C001C0020426016000870B504460D46431E7B
:100A5C00012B40F2888020F40013042B2FD0082B9C
:100A6C002DD020F020025A4B9A4228D020F0800240
:100A7C00584B9A4223D020F40072574B9A421ED006
:100A8C0003F5807398421AD020F48062534B9A423B
:100A9C0015D0B0F5805F12D020F40053B3F5EA1FE7
:100AAC000DD0B0F5004F0AD0A0F50013013B1F2B61
:100ABC0066D84B4A22FA03F313F0010F78D0012DBC
:100ACC0053D82146474B5B68A2B204F44010B0F5F2
:100ADC00401F0BD014F4801F1AD0C4F3034603201C
:100AEC00B04023EA000343F0706306E023F0706328
:100AFC003C4E706820F0706070601DB1640D240174
:100B0C00A24013430029374AB4BFD361536070BD70
:100B1C00600D000102FA00F023EA000343F0706359
:100B2C00EBE7314B9C424ED0304B9C424BD0803348
:100B3C009C4248D003F580739C4244D003F500736B
:100B4C009C4240D003F580639C423CD003F500638B
:100B5C009C4238D003F580539C4234D040F22A2179
:100B6C002348FFF7F0FB012D04D940F22B2120483C
:100B7C00FFF7E9FB2146002CA4DA1A4BDB69A3E74B
:100B8C001C4B98429BD01C4B9C4298D003F5807315
:100B9C009C4294D003F500739C4290D0174B9C421E
:100BAC008DD003F570639C4289D0B4F5011F86D0BB
:100BBC0004F10043013B1F2BB3D8114A22FA03F373
:100BCC0013F0010FCAD0012DCFD82146D5E700BFB5
:100BDC0010001400400016000001180000081A0054
:100BEC0003800080000001404000008080000080F5
:100BFC0060160008400020000001300000112000A9
:100C0C008B80008038B505460C46062815D80F2C6D
:100C1C0019D804F003039B0004F0FC0101F180419E
:100C2C0001F580318A680F20984022EA00028A6020
:100C3C008A689D4015438D6038BD40F2652105489A
:100C4C00FFF781FBE3E740F266210248FFF77BFBED
:100C5C00DFE700BF6016000810B50446012802D873
:100C6C00044B1C6010BD4FF41E710348FFF76BFB67
:100C7C00F6E700BFDC002042601600080D4B1A6836
:100C8C0042F001021A6059680B4A0A405A601A680D
:100C9C0022F0847222F480321A601A6822F48022C4
:100CAC001A605A6822F4FE025A604FF41F029A60CE
:100CBC00704700BF001002400000FFF800283AD037
:100CCC0010B50446B0F5803F26D0B0F5802F09D181
:100CDC001E4B1A6822F480321A601A6822F48022A1
:100CEC001A6013E040F211111948FFF72CFB174B57
:100CFC001A6822F480321A601A6822F480221A6070
:100D0C00B4F5803F11D0B4F5802F13D10F4A13687E
:100D1C0043F4A02313600DE00C4B1A6822F48032CC
:100D2C001A601A6822F480221A60084A136843F485
:100D3C008033136010BD054B1A6822F480321A60A0
:100D4C001A6822F480221A60704700BF001002401B
:100D5C00C016000810B504461F2807D8064B1868A3
:100D6C0020F0F80040EAC400186010BD4FF4A971DF
:100D7C000248FFF7E8FAF1E700100240C01600083D
:100D8C0010B50446012802D8044B1C6010BD40F27B
:100D9C0065110348FFF7D7FAF6E700BF000042429F
:100DAC00C016000838B504460D4630F4803302D026
:100DBC00B0F5403F1FD135F4802314D0B3F5002F8C
:100DCC0011D0B3F5801F0ED0B3F5C01F0BD0B3F507
:100DDC00001F08D0B3F5201F05D0B3F5401F02D07B
:100DEC00B5F5601F0DD10A4B596821F47C112943CC
:100DFC002143596038BD40F27F110648FFF7A3FA32
:100E0C00D9E74FF4C0710348FFF79DFAEBE700BF39
:100E1C0000100240C016000810B50446012802D884
:100E2C00044B1C6010BD4FF4CA710348FFF78BFADA
:100E3C00F6E700BF60004242C016000810B5044639
:100E4C00022806D8064A536823F003031C43546057
:100E5C0010BD4FF40E710348FFF775FAF2E700BFAF
:100E6C0000100240C0160008024B586800F00C003D
:100E7C00704700BF0010024010B5044630F08003EC
:100E8C000DD020F02003902B09D020F04003A02B94
:100E9C0005D020F01003C02B01D0F02806D1064A53
:100EAC00536823F0F0031C43546010BD4FF41971C8
:100EBC000248FFF748FAF2E700100240C01600089B
:100ECC0010B5044630F480630CD020F40073B3F5F5
:100EDC00A06F07D0B0F5C06F04D040F27E2105485A
:100EEC00FFF731FA044A536823F4E0631C4354605F
:100EFC0010BD00BFC01600080010024010B504461B
:100F0C0030F480630CD020F40073B3F5A06F07D0DD
:100F1C00B0F5C06F04D04FF426710548FFF713FAF3
:100F2C00044B586820F4605040EAC400586010BD6F
:100F3C00C01600080010024038B504460D4610F0EB
:100F4C00E00F00D120B940F2BF210B48FFF7FBF9AD
:100F5C00012D06D855B9094A137823EA04041470F4
:100F6C0008E04FF430710448FFF7EDF9034A1378A9
:100F7C001C43147038BD00BFC01600080910024095
:100F8C0010B50446012802D8044B1C6010BD40F279
:100F9C00DB210348FFF7D7F9F6E700BFD800424240
:100FAC00C016000810B5044630F4804307D0B3F5E2
:100FBC00004F04D040F202310448FFF7C4F9044A50
:100FCC00536823F440431C43546010BDC016000802
:100FDC000010024010B5044601280ED9042807D190
:100FEC000C4B00221A701A700A4B05221A700CE076
:100FFC004FF450710848FFF7A6F9064B00221A70FF
:10100C001A70012C02D0042CEED010BD014B012221
:10101C001A70FAE720100240C016000810B50446FA
:10102C00012802D8044B1C6010BD40F2613103480A
:10103C00FFF789F9F6E700BF80044242C0160008AA
:10104C0010B5044620F40073B3F5807F07D0B0F5DB
:10105C00007F04D040F272310348FFF774F9034B60
:10106C00186A2043186210BDC01600080010024018
:10107C0010B50446012802D8044B1C6010BD4FF477
:10108C0060710348FFF75FF9F6E700BF3C0442428A
:10109C00C016000810B4274B5B6803F00C03042B3C
:1010AC002BD0082B2CD013B1234B036001E0224B27
:1010BC000360204C6368C3F30313204AD35CD9B29A
:1010CC000368CB4043606168C1F30221515CC9B233
:1010DC0023FA01F181606168C1F3C221515CC9B28C
:1010EC00CB40C3606168C1F381310A44127CD2B237
:1010FC00B3FBF2F3036110BC70470F4B0360D8E7EE
:10110C000C4A53685268C3F38343023312F4803F92
:10111C0004D10B4A02FB03F30360CAE7054A526889
:10112C0012F4003F14BF064A034A02FB03F30360A8
:10113C00BFE700BF0010024000127A001C00002024
:10114C0000093D0038B504460D4620F4AA6323F08F
:10115C00070303B920B940F22B410B48FFF7F3F812
:10116C00012D06D855B9094A536923EA0404546180
:10117C0008E040F22C410448FFF7E5F8034A5369B4
:10118C001C43546138BD00BFC0160008001002405B
:10119C0038B504460D460E4B034003B920B940F256
:1011AC004A410C48FFF7CFF8012D06D855B90A4A29
:1011BC00936923EA0404946108E040F24B4105482A
:1011CC00FFF7C1F8044A93691C43946138BD00BF12
:1011DC000200C0FFC01600080010024038B50446DB
:1011EC000D460E4B184200D120B940F269410C4813
:1011FC00FFF7A9F8012D06D855B90A4AD36923EA95
:10120C000404D46108E040F26A410548FFF79BF8FA
:10121C00044AD3691C43D46138BD00BF0036018138
:10122C00C01600080010024038B504460D460E4B9F
:10123C00034003B920B940F2A4410C48FFF783F8EE
:10124C00012D06D855B90A4AD36823EA0404D460A0
:10125C0008E040F2A5410548FFF775F8044AD36849
:10126C001C43D46038BD00BF0200C0FFC01600088C
:10127C000010024038B504460D460E4B184200D102
:10128C0020B940F2C3410C48FFF75DF8012D06D898
:10129C0055B90A4A136923EA0404146108E040F2C0
:1012AC00C4410548FFF74FF8044A13691C43146105
:1012BC0038BD00BF00360181C01600080010024086
:1012CC0010B50446012802D8044B1C6010BD4FF425
:1012DC009B610348FFF737F8F6E700BF4004424232
:1012EC00C016000810B50446012802D8044B1C6037
:1012FC0010BD40F2E5410348FFF725F8F6E700BFC3
:10130C004C004242C016000810B5044640B1031F01
:10131C00DBB2032B04D940F205510348FFF713F855
:10132C00024B1C7010BD00BFC01600080710024015
:10133C0010B5044600F0EF03212B1CD039281AD02D
:10134C0041281BD061280ED0A0F17A03DBB2052B0B
:10135C0009D940F234510B48FEF7F5FF6309012B14
:10136C0009D0022B0AD0084B586A04F01F04E04045
:10137C0000F0010010BD044B1868F6E7024B186A28
:10138C00F3E700BFC01600080010024010B582B091
:10139C000023019331242046FFF7CAFF019B013340
:1013AC000193019BB3F5A06F01D00028F3D031203D
:1013BC00FFF7BEFF003018BF012002B010BD034A7A
:1013CC00536A43F080735362704700BF00100240B1
:1013DC0010B5044610280AD8094BC34013F0010F6E
:1013EC0007D140F27E510748FEF7ADFF01E080289F
:1013FC00F7D1054B9B681C4214BF0120002010BD87
:10140C0016010100C01600080010024010B5044679
:10141C0010F0600F00D120B940F2AB510248FEF73A
:10142C0092FF024B1C7010BDC01600080A1002403F
:10143C007047044B19681A4613685B1A8342FBD336
:10144C00704700BF80040020F0B4104D104AAC6807
:10145C00116813689942FAD10E4EA6FB0426360980
:10146C000A4D0B4A4FF47A7C0CFB1366094FAC689F
:10147C00116813689942FAD10CFB0363A7FB04149F
:10148C00A3EB14138342F2D3F0BC704710E000E0DE
:10149C0080040020398EE338084B1B68084AA2FBF5
:1014AC0003239B09013B074A5360074BF02183F848
:1014BC002310002393600723136070470000002063
:1014CC00D34D621010E000E000ED00E008B5FEF72F
:1014DC0039FF024A13680133136008BD80040020F1
:1014EC00002103E00B4B5B58435004310A480B4B73
:1014FC0042189A42F6D30A4A02E0002342F8043B0F
:10150C00084B9A42F9D3FEF71BFE00F00FF8FEF7DA
:10151C00DDFE704748170008000000205C04002026
:10152C005C040020A8040020FEE7000070B50D4EFE
:10153C000D4D761BB61006D00024013455F8043B33
:10154C009847A642F9D1094E094D00F0E5F8761BF3
:10155C00B61006D00024013455F8043B9847A64237
:10156C00F9D170BD3C1700083C170008441700085F
:10157C003C170008024B13B1024800F005B8704745
:10158C0000000000A1150008002301461A46184669
:10159C0000F01EB838B50A4C0A4D641BA4100AD0D2
:1015AC0004F18043013B05EB8305013C55F80439FC
:1015BC009847002CF9D1BDE8384000F0B3B800BF13
:1015CC004817000844170008704700BF704700BF59
:1015DC002DE9F0411D4C0546206890461F460E46ED
:1015EC00FFF7F2FF1A4B1A68D2F848311BB35A684E
:1015FC0020681F2A24DC4DB9511C0232596043F873
:10160C002260FFF7E3FF0020BDE8F081012403EB2B
:10161C00820CCCF88880D3F8881194402143022D99
:10162C00C3F88811CCF80871E6D1D3F88C110C43AF
:10163C00C3F88C41E0E702F5A673C2F84831D6E74F
:10164C00FFF7C4FF4FF0FF30DEE700BF5804002067
:10165C00201700082E2E2F2E2E2F53544D3332468A
:10166C003130785F5374645065726970685F4C698F
:10167C00625F56332E352E302F4C6962726172695F
:10168C0065732F53544D3332463130785F53746445
:10169C005065726970685F4472697665722F7372F7
:1016AC00632F73746D3332663130785F6770696F96
:1016BC002E6300002E2E2F2E2E2F53544D333246D8
:1016CC003130785F5374645065726970685F4C692F
:1016DC00625F56332E352E302F4C696272617269FF
:1016EC0065732F53544D3332463130785F537464E5
:1016FC005065726970685F4472697665722F737297
:10170C00632F73746D3332663130785F7263632E7E
:10171C006300000030000020F8B500BFF8BC08BC26
:10172C009E467047F8B500BFF8BC08BC9E46704793
:08173C008115000831010008CD
:041744000D0100088B
:1017480000A24A0400000000000000000102030497
:1017580006070809F401000001000000000000006D
:10176800010203040102030406070809020406082B
:10177800000000001C03002084030020EC0300206C
:101788000000000000000000000000000000000051
:101798000000000000000000000000000000000041
:1017A8000000000000000000000000000000000031
:1017B8000000000000000000000000000000000021
:1017C8000000000000000000000000000000000011
:1017D8000000000000000000000000000000000001
:1017E80000000000000000000000000000000000F1
:1017F80000000000000000000000000000000000E1
:1018080000000000000000000000000000000000D0
:1018180000000000000000000100000000000000BF
:101828000E33CDAB34126DE6ECDE05000B00000084
:1018380000000000000000000000000000000000A0
:101848000000000000000000000000000000000090
:101858000000000000000000000000000000000080
:101868000000000000000000000000000000000070
:0C1B980000000000000000008404002099
:04000005080014EDEE
:00000001FF
